:400000000080002011000000A1050000A105000010B500F0E5FAC046F8B5384C1223236000F05EFF364801F03BF9012000F078FF182000F06FFE334A334B1A60334D802698
:40004000F6052E60324A116802230B431360314A314B1A600027314B1F60314A136808218B431360FA20C00000F006FF2D4800F047FE2D4A2D4B1A602D4B2E4A1A6080223B
:4000800092002D490A602D4919602D482D4908602D4919602D490A602D4A1A60B82149012C4A11602C4A1A60C02109012B4A11602B4A1A60822212062A4B1A602A4B1F6073
:4000C00045222A4B1A60043A294B1A600332294B1A60043A284B1A600332284B1A60013A274B1A602749082000F0BAFD082000F0ABFD2E6011232360F8BDC0463000104068
:40010000001BB7000600008004010B400C020B4078002E402D3E00007C002E4064F02E406CF02E40DC050000005FEA00140301400000014045FF00800403014041FF008068
:4001400000BF5D001003014044FF00800003014040FF00800C03014043FF00800803014042FF008008010B4000010B403801014030010140200101401C0101401801014084
:40018000040101403910000070B572B600223E4B1A6001323D4B1A7000240FE03C486200131959000B00411889881A5AC31858880004104300F0EAF90134E4B2022CEDD9EE
:4001C000002411E0324EA2001319590071188D8AC88A000428430A8B498B09041143802200F0DAF90134E4B2002CEBD028492031284800F097F9284A284B1A60284A294B0A
:400200001A6099231B04284A1360A221C905274A1160274A136081210904264A1160264A1360E822254B1A600223254A1360254A136025490B783C22934314221343DBB29F
:400240000B70224A117816230B43DBB2137020231F4A1360DB2109041E4A116029211E4A11601E491E4A11601E4A13601F3B1E4A1360922189001D4A11601D4A1360FFF71F
:40028000CBFE00F069F970BD6CF02E401C700F405C2700005C290000000030EE00000240033099000001024000500F4008500F4010500F4018500F4030500F4020012040DE
:4002C0002000104000800F4001700F4000700F40000004400800044000010440061C0300080104401801044000030440080304401803044010B5064C2378002B07D1054BA2
:40030000002B02D0044800E000BF0123237010BD5001002000000000A4260000084B10B5002B03D00749084800E000BF07480368002B00D110BD064B002BFBD09847F9E738
:400340000000000054010020A4260000C00000200000000010B5064C23785B00054A985A00F09AFB2378013303221340237010BD6C010020C400002010B5012000F014FF8A
:400380000A4C63880133638000F0B0FE628813049B1A1818064B1860002000F09FFE00236380022000F000FF10BDC0466C010020B001002010B5002000F0B4FA01F0C0FB74
:4003C0008121C90501F086FA10BDC046F0B5474680B4050000241AE0164F63009846DE5BFF239E434346DE530A21280000F0FCFF89B2114B5B5C1E434346DE530A2128002A
:4004000000F06CFF85B2002D03D00134E4B2032CE2D90134E3B207E006495800445AFF22224342520133DBB2032BF5D904BC9046F0BDC046C4000020B026000070B596B03A
:4004400062B600F0A1FE00F019FF00F06FFB2C4800F0A0FB2B4800F0D3FB00F035FA00F01DF9294800F094F9284800F091F900F03BFAFA20800000F02BFC022000F03EFA26
:40048000002000F04FFA060084B20100002000F0ADFA3100002000F05BFA05003100002000F084FA0A21280000F0A2FF80B2184E3080FFF78BFF338800932B0022001549F0
:4004C00002A801F0CBFC02A800F062F9FFF772FF01F014FB03B23288009222000E4902A801F0BCFC02A800F053F90C4B1A680C4902A801F0B3FC02A800F04AF9B9E7C04690
:400500005503000079030000BC260000D4260000AC010020FC26000028270000B001002054270000F0B50025002711E0BB00C658F3B2FF22964308E06A008A181478A419EA
:40054000527822700135013BDBB2002BF4D10137092FEBD9F0BDC0460323074A1360074A136080221206064B1A600122054B1A600022054B1A607047300030403000314045
:4005800000003A4000033A40000E3F4010B50A00002101F05AFC10BD10B501F04DFC10BD10B501F01DFC03680C2B00D1FEE7FEE710B50300084A1068C318084A9A1A802ABE
:4005C00002DC054A136005E001F00AFC0C2303600120404210BDC046CC000020C001002070B50F4E0F4D13E029686B68AC68002202E001C901C30432A242FAD1E868002278
:4006000002E0002102C304328242FAD11035013E002EE9D101F0EAFBFFF710FFFEE7C04601000000502B000010B50E4A136801218B43136000230AE0032B03D89A000A4981
:40064000505800E009489900094A885001332F2BF2D9FFF799FD034A116801230B43136010BDC0460000104000000000A10500000000002010B500F075F810BD10B500F0C0
:400680001DF810BD10B5044A1368802109060B431360FFF7EFFF10BD0000244010B5064B1B78002B04D1FFF7E9FF0122024B1A70FFF7E8FF10BDC04670010020154A164BC2
:4006C0001A600023154A13601549164A1160164A16490A6007201649086016490B6006381549086015490A60154A13600421154A1160154A1360154A1360154A1360154A13
:400700001360154A1360154A13601268144B1A807047C0460F000002000024404000244001000A0048002440070000800003244004032440100324404400244000022440C4
:400740000402244050002440880E2440C80E2440480F2440080F2440C80F2440880F244072010020064A1168064B0B40902109040B431360044B1A88044B1A607047C046CD
:4007800000010240FFFF0FFF72010020880F244070B50500002402E000F092FD0134285D0028F9D170BDC04610B503210F2000F069FA20490F2000F053FA01221E4B1A6088
:4007C0001E4B1B68002B01DA1D4900E01D491E4A13680B4313601D4A1D4B1A601D4A1E4B1A6000231D4A13601D4A1E490A601E490A601E4A13601E4A136001221D4B1A6063
:400800001D4908681D4B034013430B601C4B1A6000230CE09A001B495118002008605800194C1A4944521A481A4950500133002BF0D010BD350A000020003A4080033A40BA
:40084000400E1053400E005300003A408D00008004003A400000FF0718003A401C003A400200020010003A4014003A4028023A4038023A4018023A4030003A40FFFFFFDF65
:40088000040F3A4080003A4000FEFFFFB801002088130000B401002010B5094B1B68002B0CDB084B1B68002BFBDB054A1368802109060B4313600A2000F022FA10BDC046A3
:4008C00000003A4008023A4010B5064B1B78002B04D1FFF769FF0122024B1A70FFF7DCFF10BDC04674010020034A1368802149020B4313607047C04604003A400200830784
:400900000CD0074B1B680120184001D19307F8D4002804D00122024B1A6000E00020704710023A4010B5041E02D0002000F096F9002C07D1A400054B9C46644420680004C6
:40094000000C00E0002000B210BDC04680013A4070B504000D00002802D0002000F07EF963000F4A995A09B2691A09B20D484843002906DDA3000C4A9A58D30F9A185310BE
:4009800006E0A300084A9A58D30F9A18521053421818A400044BE15800F02AFD00B270BDB801002010270000B401002070B505000C00002802D0002000F050F96A00084B62
:4009C000D05A00B2201A00B2C117064A002300F01FFEAD00044BEA58D31700F0F5FD70BDB801002080969800B401002070B504000D00002802D0002000F030F962000A4B24
:400A0000D05A00B2281A00B201F09AF8074900F061FF051CA400064BE05801F091F8011C281C00F03DFE70BDB801002000002041B4010020014B1A681A60704710023A40A8
:400A400010B500F036FC0B4A117820230B43DBB2137009490A7810231A43D2B20A70074A11780B43DBB2137000F027FCFF2000F0D5F810BD93000F4091000F4090000F4019
:400A8000014B1878C0B2704761000F40014B1878C0B2704760000F40034B1B785B07FBD5024B18807047C04661000F4084100F4010B501E00E4B1B880E4B1B789B06F9D489
:400AC00000F0F7FB0C490A78012401231A43D2B20A700A78A2430A70084A11780B43DBB213701378A343137000F0E7FB10BDC046A4100F4060000F4092000F4093000F4071
:400B000010B51F22064B1A70FFF7D2FFFFF7B8FFFFF7BCFF0023034A1370034A137010BD83000F4081000F4080000F4010B5064B1B78002B04D1FFF7E3FF0122024B1A7033
:400B4000FFF77EFF10BDC04675010020014B58647047C0460000002010B5040000F0A9FB044A1168044B0B40A4031C43146000F0A4FB10BD00E400E0FF3FFFFF0222014BB0
:400B80001A60704700E100E00222014B1A60704780E100E010B50400FFF7F6FF2000FFF7D5FF0320FFF7D8FFFFF7E8FF10BDC0468423014AD05070470000002010B5040071
:400BC00000F077FB044A1168044B0B40A4031C43146000F072FB10BD10E400E0FF3FFFFF80229202014B1A607047C04600E100E080229202014B1A607047C04680E100E00A
:400C000010B50400FFF7F4FF2000FFF7D1FF0320FFF7D4FFFFF7E4FF10BDC046044B1B68002BFBDB0002034B1843014B186070470000014041000080024B1B680120184040
:400C40007047C0460C002E401F2318401E3B8340014A13607047C04600E100E001BE704770B504000D001F2802D90020FFF7F6FF1034A40080239B059C46644420682560B0
:400C800070BDC04670B504000E00032902D90020FFF7E4FF1F2C02D90020FFF7DFFF03252540ED00063500F004FBA408A400074B9C46644421680323AB4099430B0031002E
:400CC000A9401943216000F0F8FA70BD00E400E010B5040006E0084B586800F0E1FA074B9C46644480231B029C42F4D8024B9868604300F0D5FA10BDD00000200080FFFF9E
:400D000010B5034B1B7B584300F0CAFA10BDC046D0000020F0B557464E46C0B483B0040000F0C7FA0190E71E2D2F74D83F4B1B78DBB29C4208D83E4B1B78DBB29A463D4B0F
:400D40001B78DBB2994631E03B4B1B78DBB29C4208D83A4B1B78DBB29A46394B1B78DBB2994623E0374B1B78DBB29C4208D8364B1B78DBB29A46354B1B78DBB2994615E09F
:400D8000334B1B78DBB29C4208D8324B1B78DBB29A46314B1B78DBB2994607E02F4B1B78DBB29A462E4B1B78DBB299462D4BDE5D2F2E09D92A2C07D919222B4B1A6005208E
:400DC00000F06EFA192503E0274B1D683F231D40B54206D9234BDA5D234B1A60052000F05FFA1F4B9C4664442378DBB21F4A13601F4B52461A601F4B4A461A600520FFF7F0
:400E00007FFFB5420AD2174BDA5D174B1A60052000F046FA02E00020FFF720FF019800F04CFA03B00CBC91469A46F0BD40F3FF0F41F3FF0F42F3FF0F43F3FF0F44F3FF0F83
:400E400045F3FF0F46F3FF0F47F3FF0F48F3FF0F49F3FF0F4AF3FF0F4BF3FF0F4CF3FF0F4DF3FF0F042A00002CFF0B4028FF0B401CFF0B4020FF0B4010B504000F4A116857
:400E800001230B4313600E4A0E4B1A600E4A1368802109020B431360002809D100200CE00120FFF72DFFFFF7C7FE002804D1013C002CF5D1102000E0002010BD60F02E40EF
:400EC0000220000078002E4010002E40034B1868C0231B02184000D00120704700010B4010B50D4B1A6801218A431A601A68022082431A60094A10683024A043203C2043A6
:400F000010601068093CA043014311601A68802109060A431A6010BD00F02E4000FF2E4070B51D4B1B6801241C40002802D0012816D02BE0184B19680122914319601968E1
:400F4000022081431960154B19682E3081432038014319601968093881430A431A6018E00D4B1A6802218A431A600C4A10680725A8430143116011683020814310380143BE
:400F80001160196801220A431A6002E00020FFF765FE200070BDC04600F02E4000FF2E4010B500F086F9044A1368C02109020B43136000F082F910BD00010B4010B500F0F9
:400FC00078F908490A68084B1A408024E40122430A600A6813408022120213430B6000F06CF910BD00010B40FF3FFFFF70B5050000F05FF90400FFF769FF002803D0FFF70D
:40100000DDFF012100E0002108482840084A1568084B2B40184310601368012901D1FFF7BFFF200000F049F970BDC0460404040010020B40FBFBFBFF10B5244B1B685B077F
:4010400015D5234B5B685B070ED5224B596A042001401F4C62688A4362605A6A82435A629B69002B00D098470420FFF7BFFF174B1B685B0518D5164B5B685B0510D5154BC1
:40108000596A8022D2001140114842688A434260596A114A0A405A62DB69002B00D098478020C000FFF7A2FF084B1B685B030CD5074B5B685B0304D5064B1B6A002B00D0CB
:4010C00098478020C002FFF791FF10BD10020B40E400002078010020FFFBFFFF0004000C014B18607047C04608012040024B18680004000C7047C046080120400004000C5D
:40110000014B18607047C0461401204070B504000D0000F0CEF8AC40024B1C6000F0CDF870BDC0460800204010B500F0C2F8064A116801230B43136000F0BFF818210120AA
:40114000FFF7E4FF10BDC04600002040014B18607047C0463801204010B580229204074B1A600022064B1A600320FFF7EFFF0548FFF7C4FF0020FFF7B1FF10BD0001204092
:4011800024012040FFFF000010B5064B1B78002B04D1FFF7E1FF0122024B1A70FFF7C4FF10BDC046A0010020014B18607047C046300120400004000C014B18607047C04643
:4011C000480120400004000C014B18607047C046540120400004000C014B18607047C0464C01204070B504000D0000F062F8AC40024B1C6000F061F870BDC04608002040A9
:4012000010B500F056F8064A116802230B43136000F053F818210220FFF7E4FF10BDC04600002040014B18607047C0467801204010B50E4C8023DB042360236823600020AE
:40124000FFF7B8FF236823600C22094B1A600020FFF7E8FF3122074B1A600748FFF7B2FFFA204000FFF7B6FF10BDC046400120406401204068012040E703000010B5064B9E
:401280001B78002B04D1FFF7D3FF0122024B1A70FFF7B6FF10BDC046A1010020000000000230800803D00138FDD1C046C046C0467047EFF3108072B6704780F31088704729
:4012C000044B1B681F221340082BF9D0024B18607047C0460802244040022440002243088B4274D303098B425FD3030A8B4244D3030B8B4228D3030C8B420DD3FF220902BB
:4013000012BA030C8B4202D31212090265D0030B8B4219D300E0090AC30B8B4201D3CB03C01A5241830B8B4201D38B03C01A5241430B8B4201D34B03C01A5241030B8B42B9
:4013400001D30B03C01A5241C30A8B4201D3CB02C01A5241830A8B4201D38B02C01A5241430A8B4201D34B02C01A5241030A8B4201D30B02C01A5241CDD2C3098B4201D372
:40138000CB01C01A524183098B4201D38B01C01A524143098B4201D34B01C01A524103098B4201D30B01C01A5241C3088B4201D3CB00C01A524183088B4201D38B00C01ACD
:4013C000524143088B4201D34B00C01A5241411A00D20146524110467047FFE701B5002000F0F0F802BDC0460029F7D076E7704703460B437FD4002243088B4274D30309CE
:401400008B425FD3030A8B4244D3030B8B4228D3030C8B420DD3FF22090212BA030C8B4202D31212090265D0030B8B4219D300E0090AC30B8B4201D3CB03C01A5241830B2B
:401440008B4201D38B03C01A5241430B8B4201D34B03C01A5241030B8B4201D30B03C01A5241C30A8B4201D3CB02C01A5241830A8B4201D38B02C01A5241430A8B4201D33E
:401480004B02C01A5241030A8B4201D30B02C01A5241CDD2C3098B4201D3CB01C01A524183098B4201D38B01C01A524143098B4201D34B01C01A524103098B4201D30B0180
:4014C000C01A5241C3088B4201D3CB00C01A524183088B4201D38B00C01A524143088B4201D34B00C01A5241411A00D201465241104670475DE0CA0F00D04942031000D3A8
:401500004042534000229C4603098B422DD3030A8B4212D3FC22890112BA030A8B420CD3890192118B4208D3890192118B4204D389013AD0921100E08909C3098B4201D311
:40154000CB01C01A524183098B4201D38B01C01A524143098B4201D34B01C01A524103098B4201D30B01C01A5241C3088B4201D3CB00C01A524183088B4201D38B00C01A0B
:401580005241D9D243088B4201D34B00C01A5241411A00D20146634652415B10104601D34042002B00D54942704763465B1000D3404201B5002000F005F802BD0029F8D064
:4015C00016E770477047C046002B15D1002A13D1002906DB01DC002806D00020C043410802E080210906002007B4024801A14018029003BDD1FFFFFF03B4684601B5029884
:4016000000F032F8019B9E4602B00CBC7047C046F0B54F464646C0B41604360C9946330005042C0C070C150C63437E436F4365431C0CAD1964199C46A64203D980235B02EA
:40164000984647446346250CEF191D044B464A4343432D0C240464199918C91920000CBC90469946F0BDC046F0B583B016001F000090019100F0CAFA04000D0002000B0098
:4016800030003900FFF7C4FF009A019B121A8B41089920000A604B60290003B0F0BDC046F0B5564644465F464D46F0B444024600C70F83B08846650A360EBA463DD0FF2E7E
:4016C00022D00023EC00802599469B46ED0425437F3E43465C025800DB0F640A000E984636D0FF2830D080230021E400DB041C437F38301A0190484642460843724E8000A5
:4017000030587A4013008746002D44D108239946063B9B46DDE70122FF2000241A406402C305640AD2071C431443200003B03CBC90469946A246AB46F0BD002D20D104231F
:401740009946033B9B46C4E7002C17D1022102E0002C0AD10121321A01924A4643460A435A48920082587B409746200000F030FA431F76309C4040420021BAE70321B8E76E
:40178000280000F025FA431F9D4000237630464299469B469DE70C239946093B9B4698E780240022E403FF20B9E70024C2468B465A465346022AAED0032A7DD0012A31D179
:4017C000012200201A400024A9E70122101A1B2856DD1A4000200024A1E78023DB031D424BD18023DB032B435C02640A3A00FF2095E76D016001854230D2019A0024013A91
:4018000001921B220127290064006D00002901DBA84201D82D1A3C43013A002AF3D16A1E95412C4301987F300028CEDD620704D00F222240042A00D00434220103D5244AA8
:40184000019814408030FE2800DD64E70122A401640AC0B21A4062E72C00A9E72D1A1A220124CFE76B02BCD500248023DB031C436402640A4246FF2051E71C42B3D1F4E7A6
:4018800021002022C140101A8440621E94410C43620704D00F222240042A00D00434620104D5012201201A40002438E70122A401640A1A40002032E78023DB031C43640200
:4018C000640A5246FF202AE7342A0000742A0000FFFFFFF7F0B557464E4645464300E0B446028846760A1F0EC40F002F47D0FF2F25D0002380259A469946F600ED042E43AC
:401900007F3F434642465D02D20F5B006D0A1B0E904640D0FF2B39D080220020ED00D20415437F3BFB1842465746591C62408C4607430F2F5CD86F49BF00C9598F46002E74
:4019400045D108239A46063B9946DAE7424602282DD0032800D1C3E0012800D0A2E0002500260240D4B27602ED05760A2E43E407264330001CBC90469946A246F0BD002E5A
:401980001AD104239A46033B9946BAE72A00511E8A41901CC6E70120002DC3D0280000F017F9431F76309D4043420020BAE70124FF2514400026D6E7300000F009F9431F82
:4019C0009E400023763047429A46994699E70C239A46093B994694E780260024F603FF25C1E735004846B2E7350022004846AEE72904090C0800370C3604360C2C0C794369
:401A0000704367437443060C64183619B14203D980214902884647440004000C310409188D01681E8541890E2943350CED19AD010D43290104D5012369081D4063460D432B
:401A400019007F31002925DD680704D00F202840042800D00435280103D5274980330D401900FE29A3DC0124AD016E0A1440CDB279E78020C003064207D0054205D12843AB
:401A80004602760A4446FF256DE706437602760AFF2568E70124611A1B2905DD14400025002660E76346CBE72E002023CE40591A8D406B1E9D412E43730704D00F23334017
:401AC000042B00D00436730104D5012401251440002648E70124B601760A1440002542E780260124F6032E437602760A1440FF2539E7C046B42A0000FFFFFFF74302590A29
:401B00004300C20F1B0E00207E2B0EDD9D2B0DDC802000040143952B0BDC9620C31AD9400B005842002A00D118007047034BD018FBE7963B99400B00F3E7C046FFFFFF7F30
:401B400070B5002830D0C317C5185D40C40F280000F03EF89E231B1A962B0DDC9622D21A95406A02520AD8B25202C005520AE40702432243100070BD992B19DC9922D21A91
:401B80009540124A2A40690704D00F210D40042D00D00432510103D50C4B1A409F231B1A9201520AD8B2DFE7002400200022DBE705222E00121AB921D6402A00C91A8A4011
:401BC000551EAA4135001543DBE7C046FFFFFFFB1C2101231B04984201D3000C10391B0A984201D3000A08391B09984201D30009043902A2105C40187047C0460403020251
:401C0000010101010000000000000000F0B544465F4656464D46F0B41C0083B0002900DA92E00F00002106008A4610001900002C00DA80E034003D0081468846B94269D85E
:401C400066D04146484600F0BFF883463900300000F0BAF85B461B1A9C46203B9B4600D586E04946584681400B004946604681400A00BB4200D971E06DD034003D00594602
:401C8000A41A9D41002900DA89E00021002001260090019159468E400196614601268E4061460096002960D0D90756080E435F086146012200230CE0AF4201D1A6420AD800
:401CC000A41BBD4124196D410139A4185D41002906D0AF42F0D9013924196D410029F8D15B460098019900196941002B4CDB2E00DE4063462C00DC405B46002B5ADB34007E
:401D00009C4023006446A6403200801A994103E0B04296D9002000215346002B04D003000C0000215842A14103B03CBC90469946A246AB46F0BD5346DB430C009A46130009
:401D400000215842A14175E7002746428F41012149428A4669E7B14200D88EE70021002000900191614600299ED100980199D3E7624640462023494690409B1AD9400300AF
:401D8000009100990B4370E7624620239B1A2A009A40260013006246D6401E43A9E7614620260127761A00200021F74000900191019772E762462023350094409B1ADD40D2
:401DC00023002B439EE7C04610B5002903D1FFF7FFFE203002E0081CFFF7FAFE10BDC046014B18687047C0464C0100200E4B70B500251E000D4CE41AA410A54204D0AB00D3
:401E0000F35898470135F8E700F090FE084B00251E00084CE41AA410A54204D0AB00F35898470135F8E770BD382B0000382B0000382B0000402B0000002310B59A4203D04C
:401E4000CC5CC4540133F9E710BD03008218934202D019700133FAE7704700000EB410B59DB002A9029008610B48822488604861012040421FABC881084804CBA4000068C3
:401E800001938C8100F06EF80023029A13701DB010BC08BC03B01847FFFFFF7F4C010020F0B58E6885B007000C00039201939E4243D890238A89DB001A423ED003250969E5
:401EC000236801985B1A029363695D43EB0F5D19029B6D1001331B18AB4200D91D00530510D52900380000F037FB061E14D0029A2169FFF7A1FFA289194B13408022134316
:401F0000A38112E02A00380000F086FB061E0CD12169380000F0D4FA0C23402201203B60A38940421343A38117E0029B2661F61826606561019EED1AA560019BB34200D23F
:401F40001E0032000399206800F0A5FA0020A3689B1BA36023689E19266005B0F0BDC0467FFBFFFFF0B59FB0029005938B890F0016001B0610D50B69002B0DD1402100F0A7
:401F8000EBFA38603861002804D10C23029A01381360D8E040237B61002306AD6B6120336B761033AB7634002378002B03D1A31B049312D003E0252BF9D00134F4E7A31B97
:401FC000320039000298FFF76BFF431C00D1B4E06A69049B944663446B612378002B00D1ABE00122002352426A6002A95432521801342B60EB60AB601370AB65534E2178B5
:402000000522300000F03CFA002807D00123801B83402A68013413432B60EFE72B68DA0604D55322202102A8121811701A0704D553222B2102A81218117022782A2A03D0FC
:40204000099B00200A210EE0059A111D12680591002A01DB099204E05242EA60022213432B6001340BE02278303A092A04D84B4301349B180120F6E7002800D00993237868
:402080002E2B1ED163782A2B0AD1059B02341A1D1B680592002B01DA01235B42079310E000230A201A0001346B6021783039092904D84243013452180123F6E7002B00D0BE
:4020C0000792234E21780322300000F0D9F9002806D04023801B83402A68013413432B60217806221B48661C297600F0C9F9002812D0194B002B06D10722059B073393437F
:402100000833059314E005AB00933A00134B2900029800E000BF07E005AB00933A000F4B2900029800F08AF80390039B013304D06B69039A9B186B6135E7BB890B985B061B
:4021400001D5012040421FB0F0BDC046F62A0000FC2A0000002B000000000000A11E0000F7B5170001938A680B6900900C00934200DA130022003B6043321278002A01D062
:4021800001333B6023689B0602D53B6802333B60062523681D401ED0230043331B785A1E9341226892061CD53020E1184331087021005A1C45310978A218433202331170A6
:4021C0000FE022000123193201990098089EB047431C0ED00135E3683A689B1A9D42F0DBDAE72200019943320098089DA847431C02D10120404220E006232068E1683A6842
:4022000003400025042B03D18D1AEB43DB171D40A3682269934201DD9B1AED180027BD420AD0220001231A3201990098089EB047431CDED00137F2E70020FEBDF0B58BB0D2
:4022400006920A0043320793059004920A7E0C00109B6E2A00D1ABE011D8632A22D009D8002A00D1B5E0582A00D0C5E045310A70814A4FE0642A1DD0692A1BD0BCE0732A63
:4022800000D1AAE009D86F2A29D0702A00D0B3E0202209680A43226037E0752A1FD0782A33D0A9E00E001A684236111D196013683370A4E021681A68080606D4490604D592
:4022C000111D19600023D55E02E0111D19601568002D3BDA2D23049A6D42137036E021681A68080606D4490604D51568111D1960ADB202E0111D196015685F4B227E0393DF
:4023000008276F2A1DD00A271BE022007821453211705A4A19680392081D226818600D68100602D4500600D5ADB2D30702D520231A4322601027002D03D1202322689A4388
:4023400022602300002243331A7002E00A274A4B03936368A360002B09DB0422216891432160002D05D1049E002B11D07BE0002D79D0049E28003900FFF736F8039B013EF1
:402380005B5C280033703900FEF7A8FF051EF1D1082F09D12368DB0706D563682269934202DC3023013E3370049B9B1B23612BE009681A68080607D4490605D5111D1960BA
:4023C0001368A28A1A8004E0111D1960136862691A600023049E236116E01A68111D1960166800216268300000F04AF8002801D0801B6060636803E02600423632700123B8
:4024000023610023049A1370079B09AA00932100069B0598FFF7A4FE431C02D10120404227E02369320006990598079DA847431CF4D0236800259B070FD4099BE06898426E
:4024400017DA180015E022000123193206990598079EB047431CE1D00135E368099A9B1A9D42F0DBE9E72600039B42361B7833708EE70BB0F0BDC046072B0000182B0000C8
:40248000C9B28218904204D003788B4202D00130F8E70020704710B5884202D98B18984201D3002305E09B1A013A08D3995C8154FAE7934203D0CC5CC4540133F9E710BD5E
:4024C00070B50500002944D00C1F2368002B00DAE418280000F0D8F81E4A13681100002B02D16360146031E0A3420DD92268A018834203D118685B688218226063600C6068
:4025000024E0A24203D813005A68002AF9D11E689819A0420BD12168711858181960824214D110685268411819605A600EE0A04202D90C232B6009E021686018824203D1D1
:40254000106852684118216062605C60280000F09CF870BDA8010020032370B5CD1C9D43083506000C2D01D20C2501E0002D01DBA94202D90C23336048E0300000F084F865
:40258000234B1C681A002100002913D00B685B1B0DD40B2B02D90B60CC181EE08C4202D1636813601AE04B6863600C0016E00C004968E9E7174C2368002B03D1300000F0CF
:4025C00051F820602900300000F04CF8431C18D00323C41C9C43A0420DD12560300000F054F8200007220B30231D9043C31A0ED05A42E2500BE0211A300000F033F8431CB8
:40260000EBD10C233000336000F03FF8002070BDA8010020A4010020F8B506000C001500002904D11100FFF797FF040018E0002A03D1FFF745FF2C0012E000F027F8854253
:402640000ED929003000FFF787FF071E07D021002A00FFF7F1FB21003000FFF731FF3C002000F8BD002370B5064C050008002360FDF79EFF431C03D12368002B00D02B60EE
:4026800070BDC046BC010020704770470B1F1A68101F002A04DA891804390B68D0180438704700000000000064F5FF7F01000000039F250D9949411F01090000496E697401
:4026C00020737461676520697320646F6E65200D0A0000005374617274696E672041444320284672656552756E6E696E67206D6F6465206F6E6C7929200D0A005265616C43
:402700003A206E203D203078253034783B2056203D2025646D56202054203D202564204320200D0A00000000437573746F6D3A206E203D203078253034783B2056203D2046
:4027400025646D56202054203D202564204320200D0A0000256C750A0000000000300F40800200330F40000100400F400004000080320F408429000080000000831F0104BD
:402780000472050A06080710080209560A0D0B090C4D0D0410011232141015011660181219041A641C4D1D071F38204D2104244D2704280D29042A402D60320F337F3470A5
:4027C00039083A285440580459045B045C115D105F0187038C078E089101941C97039F02A40BA614A809AA12B001B103B21EB808BE01D409D804D904DB04DC11DD10DF0167
:40280000000802010308070208040A880B010E20102011011204152819101B081E201F0121082780280429102A052B0130203108324036083782388039293C0848024940AF
:402840005D225E405F04616467028380C087C22FC46ECA0FCCDECE4FD6F0D81E3AC040234104426047B0482049FF4AFF4BFF4C034E704F48500458045A045C035D015F0194
:4028800062C0644065026610671268C069026B126C406D026E406F020008014102010A89102A1204130119041A411B701F80200A2114224C232A29513028324033013929D8
:4028C00041044320472A480549014A404B044F205002512057016380682869416B017040714073018380852086408D028F209480952996C8970599109D269E059F02A42675
:40290000A520A608A701AE10B108C00DC20BC40FCA0DCC0FCE07D0E6D22CD801E004EE205B018008D640E2802F02540858406F2083229840A008AC40B301CA20D4C0DA80E5
:40294000E020E620EE1040206A40D002DA021420824096409C20C404010A100A01000F4041300F402E310F401E320F4044330F4004400F400F410F4004420F4005430F40A5
:4029800002600F40411A000012C12C38009C00030000410006183802000200182A18140204331A44418200004100000041180000001A40002000400F01E01E1300008028B5
:4029C000000015003605200000CEF0D02BFFFFFF2200F048040000000000022C04040404111100010000C00040021012C00200124002400200000000000000000000000076
:402A000000000000030405060708090A0B0C0E0F101112131415161718191B1C1D1E1F2021222325262728292A2B2E2F3031323334350000F217000016170000D417000085
:402A4000AC170000D4170000A0170000D4170000AC1700001617000016170000A0170000AC170000581800005818000058180000DA1700001617000016170000C0170000FD
:402A8000AA170000C0170000A0170000C0170000AA1700001617000016170000A0170000AA17000058180000581800005818000064180000F01900004E1900004E190000BA
:402AC0004C190000E2190000E2190000D81900004C190000E2190000D8190000E21900004C190000E8190000E8190000E8190000721A00004300232D302B2000686C4C001C
:402B00006566674546470030313233343536373839414243444546003031323334353637383961626364656600000000F8B5C046F8BC08BC9E4670471D0300002906000078
:402B4000F8B5C046F8BC08BC9E467047F5020000602B0000C0000020900000007000000000000000FF10FF20FF40FF80C0010020010000000000E02EC05D0000180000001C
:402B800000366E01F0000000040404000000000000000000000000000000000000000000000000000000000000000000F42A00000000000000000000000000000000000056
:402BC0000000000000000000000000000000000000000000000000000000000000000000000000000000000000000000EC00002000000000000000000000000000000000C9
:402C00000000000000000000000000000000000000000000000000000000000000000000000000000000000000000000000000000000000000000000000000000000000094
:402C40000000000000000000000000000000000000000000000000000000000000000000000000000000000000000000000000000000000000000000000000000000000054
:402C80000000000000000000000000000000000000000000000000000000000000000000000000000000000000000000000000000000000000000000000000000000000014
:402CC00000000000000000000000000000000000000000000000000000000000000000000000000000000000000000000000000000000000000000000000000000000000D4
:020000040003F7
:0200000490303A
:02000000A1DE7F
:0200000490402A
:4000000000000000000000000000000000000000000000000000000000000000000000000000000000000000000000000000000000000000000000000000000000000000C0
:400040000000000000000000000000000000000000000000000000000000000000000000000000000000000000000000000000000000000000000000000000000000000080
:0200000490501A
:0C00000000021A1711AA00011A24B3888C
:0200000490600A
:0100000001FE
:00000001FF